:020000040800F2
:100000000000022039130008710B0008790B00086A
:100010007B0B00087D0B00087F0B00080000000030
:10002000000000000000000000000000815B0008EC
:10003000810B000800000000215C0008830B000811
:100040008913000889130008891300088913000820
:100050008913000889130008990B00088913000808
:100060008913000889130008891300088913000800
:10007000A50B0008891300088913000889130008DC
:1000800089130008891300088913000889130008E0
:10009000B50B0008891300088913000889130008AC
:1000A00089130008C50B000889130008891300088C
:1000B00089130008891300088913000889130008B0
:1000C00089130008891300088913000889130008A0
:1000D000891300088913000889130008D50B00084C
:1000E0008913000889130008891300088913000880
:1000F0008913000889130008891300088913000870
:10010000891300088913000889130008891300085F
:10011000891300088913000889130008891300084F
:10012000891300088913000889130008891300083F
:10013000891300088913000889130008891300082F
:10014000891300088913000889130008E50B0008CB
:10015000891300088913000889130008F50B0008AB
:1001600089130008891300088913000889130008FF
:100170008913000889130008891300080000000093
:0801800089130008891300082F
:1001900010B5054C237833B9044B13B10448AFF3C1
:1001A00000800123237010BDB40500200000000072
:1001B000D47B000808B5034B1BB103490348AFF3D8
:1001C000008008BD00000000B8050020D47B0008B6
:1001D00053B94AB9002908BF00281CBF4FF0FF31AE
:1001E0004FF0FF3000F074B9ADF1080C6DE904CEAA
:1001F00000F006F8DDF804E0DDE9022304B0704702
:100200002DE9F047089D04468E46002B4DD18A42C9
:10021000944669D9B2FA82F252B101FA02F3C2F1FC
:10022000200120FA01F10CFA02FC41EA030E94408D
:100230004FEA1C48210CBEFBF8F61FFA8CF708FBAE
:1002400016E341EA034306FB07F199420AD91CEB86
:10025000030306F1FF3080F01F81994240F21C81B8
:10026000023E63445B1AA4B2B3FBF8F008FB103300
:1002700044EA034400FB07F7A7420AD91CEB040435
:1002800000F1FF3380F00A81A74240F20781644405
:10029000023840EA0640E41B00261DB1D44000238A
:1002A000C5E900433146BDE8F0878B4209D9002DEE
:1002B00000F0EF800026C5E9000130463146BDE878
:1002C000F087B3FA83F6002E4AD18B4202D38242E2
:1002D00000F2F980841A61EB030301209E46002D91
:1002E000E0D0C5E9004EDDE702B9FFDEB2FA82F2E6
:1002F000002A40F09280A1EB0C014FEA1C471FFA44
:100300008CFE0126200CB1FBF7F307FB131140EA2A
:1003100001410EFB03F0884208D91CEB010103F1F7
:10032000FF3802D2884200F2CB804346091AA4B2B9
:10033000B1FBF7F007FB101144EA01440EFB00FE8D
:10034000A64508D91CEB040400F1FF3102D2A645F2
:1003500000F2BB800846A4EB0E0440EA03409CE791
:10036000C6F12007B34022FA07FC4CEA030C20FA3E
:1003700007F401FA06F31C43F9404FEA1C4900FA5E
:1003800006F3B1FBF9F8200C1FFA8CFE09FB1811DB
:1003900040EA014108FB0EF0884202FA06F20BD94E
:1003A0001CEB010108F1FF3A80F08880884240F29E
:1003B0008580A8F102086144091AA4B2B1FBF9F0E2
:1003C00009FB101144EA014100FB0EFE8E4508D9DD
:1003D0001CEB010100F1FF346CD28E456AD9023862
:1003E000614440EA0840A0FB0294A1EB0E01A14247
:1003F000C846A64656D353D05DB1B3EB080261EBB5
:100400000E0101FA07F722FA06F3F1401F43C5E98E
:10041000007100263146BDE8F087C2F12003D840C4
:100420000CFA02FC21FA03F3914001434FEA1C4706
:100430001FFA8CFEB3FBF7F007FB10360B0C43EAF8
:10044000064300FB0EF69E4204FA02F408D91CEBA8
:10045000030300F1FF382FD29E422DD902386344A6
:100460009B1B89B2B3FBF7F607FB163341EA034146
:1004700006FB0EF38B4208D91CEB010106F1FF3895
:1004800016D28B4214D9023E6144C91A46EA00468C
:1004900038E72E46284605E70646E3E61846F8E61E
:1004A0004B45A9D2B9EB020864EB0C0E0138A3E767
:1004B0004646EAE7204694E74046D1E7D0467BE748
:1004C000023B614432E7304609E76444023842E7C0
:1004D000704700BF844641EA000313F003036DD167
:1004E000403A41D351F8043B40F8043B51F8043BF7
:1004F00040F8043B51F8043B40F8043B51F8043BFE
:1005000040F8043B51F8043B40F8043B51F8043BED
:1005100040F8043B51F8043B40F8043B51F8043BDD
:1005200040F8043B51F8043B40F8043B51F8043BCD
:1005300040F8043B51F8043B40F8043B51F8043BBD
:1005400040F8043B51F8043B40F8043B51F8043BAD
:1005500040F8043B51F8043B40F8043B51F8043B9D
:1005600040F8043B403ABDD2303211D351F8043B3D
:1005700040F8043B51F8043B40F8043B51F8043B7D
:1005800040F8043B51F8043B40F8043B103AEDD2EC
:100590000C3205D351F8043B40F8043B043AF9D23D
:1005A000043208D0D2071CBF11F8013B00F8013B10
:1005B00001D30B8803806046704700BF082A13D31D
:1005C0008B078DD010F003038AD0C3F10403D21A35
:1005D000DB071CBF11F8013B00F8013B80D331F869
:1005E000023B20F8023B7BE7043AD9D3013A11F8E9
:1005F000013B00F8013BF9D20B7803704B78437054
:100600008B7883706046704708B50D480D4B0360CA
:100610000323436000238360C3604FF41022026110
:100620004FF400124261037643768376C3760377F4
:10063000437700F011FF00B908BD00F0EDF9FBE7CA
:10064000D40500200064004008B50D480D4B036040
:100650000323436000238360C3604FF410220261D0
:100660004FF400124261037643768376C3760377B4
:10067000437700F0F1FE00B908BD00F0CDF9FBE7CB
:10068000FC0500200068004010B58AB000230593E7
:1006900006930793089309930368394A934204D059
:1006A000384A934234D00AB010BD374A1368013338
:1006B0001360012B1FD000240194344B1A6B42F0BD
:1006C00008021A631B6B03F008030193019B0323C9
:1006D00005930222069208930923099305A92C4841
:1006E00001F02AFB22460521142001F09FF8142076
:1006F00001F0D4F8D7E700230093244B1A6C42F0A2
:1007000000721A641B6C03F000730093009BD2E725
:10071000002302931D4B1A6C42F080621A641B6C1A
:1007200003F080630293029B174A1368013313603E
:10073000012B18D000230493144B1A6B42F00202D1
:100740001A631B6B03F002030493049B602305935D
:1007500002230693032308930923099305A90D484F
:1007600001F0EAFA9FE700230393084B1A6C42F06A
:1007700000721A641B6C03F000730393039BD9E7A8
:100780000064004000680040D005002000380240AE
:10079000000C02400004024008B50548054B036008
:1007A00001F09EF800B908BD00F036F9FBE700BF84
:1007B00024060020003002400268094B9A4200D013
:1007C000704782B000230193064B1A6B42F48052AB
:1007D0001A631B6B03F480530193019B02B07047B3
:1007E000003002400038024000B583B00022019280
:1007F000094B196B41F4001119631B6B03F40013CF
:100800000193019B05210C2001F010F80C2001F050
:1008100045F803B05DF804FB0038024008B506F067
:10082000EDFB012005F00AF9FBE708B5002006F012
:100830008FF808BD034B0360034B0B6080231360EC
:10084000704700BF440800204406002010B5A4B043
:10085000314C0DF1740CA646BEE80F00ACE80F0059
:100860009EE807008CE8070000211DA805F0B1F8FC
:100870002A4B18600DF1580C04F11C0EBEE80F0055
:10088000ACE80F009EE807008CE80700002116A8DE
:1008900005F09FF8224B18600DF13C0C04F1380E66
:1008A000BEE80F00ACE80F009EE807008CE80700E8
:1008B00000210FA805F08DF81A4B18600DF1200CDF
:1008C00004F1540EBEE80F00ACE80F009EE80700EC
:1008D0008CE80700002108A805F07BF8124B18608F
:1008E0000DF1040E04F1700CBCE80F00AEE80F002F
:1008F0009CE807008EE80700002101A805F069F8D0
:100900000A4B186000228021012005F081FC084B71
:10091000186024B010BD00BFEC7B00083806002032
:100920003406002030060020400600203C0600204F
:100930002C06002010B58EB0002409940A940B9464
:100940000C940D940194324B1A6B42F002021A631C
:100950001A6B02F002020192019A02941A6B42F0A1
:1009600040021A631A6B02F040020292029A039448
:100970001A6B42F001021A631A6B02F00102039231
:10098000039A04941A6B42F008021A631A6B02F07D
:1009900008020492049A05941A6B42F004021A6346
:1009A0001A6B02F004020592059A06941A6B42F43F
:1009B00080721A631A6B02F480720692069A079488
:1009C0001A6B42F080021A631A6B02F080020792DF
:1009D000079A08941A6B42F010021A631B6B03F01B
:1009E00010030893089B012309934FF444120A92C1
:1009F0000B9309A9074801F09FF92246052106201B
:100A000000F014FF062000F049FF0EB010BD00BF3B
:100A1000003802400000024072B6FEE700B595B013
:100A20003022002108A807F013F800230393049351
:100A30000593069307930193214A116C41F080516D
:100A40001164126C02F080520192019A02931D4BC4
:100A50001A6842F480421A601B6803F480430293D0
:100A6000029B012308934FF48033099302230E93D2
:100A70004FF480020F9206221092A8221192129334
:100A80000723139308A801F0F9FFA8B90F230393D4
:100A900002230493002305934FF4A05306934FF4CD
:100AA00080530793052103A802F03CFA30B902F005
:100AB000E1F915B05DF804FBFFF7AEFFFFF7ACFFFF
:100AC000003802400070004008B500F085FCFFF7D8
:100AD000A5FFFFF72FFFFFF787FE00F087FA00F072
:100AE0002BFA00F0EDFA00F091F900F059FB00F05C
:100AF00075FBFFF789FDFFF7A7FDFFF74DFE0A4CD9
:100B0000204602F0BBFB0021204602F0B5FE042186
:100B1000204602F0B1FE0821204602F0ADFEFFF7AC
:100B200095FE04F051FFFEE72809002000B583B0D0
:100B3000002200920D4B596C41F480415964596C6C
:100B400001F48041009100990192196C41F08051AB
:100B500019641B6C03F080530193019B0F216FF00C
:100B6000010000F063FE03B05DF804FB00380240B2
:100B700008B502F0AFFAFEE7FEE7FEE7FEE7FEE7A4
:100B8000704708B500F042FC06F0CEF9012800D10C
:100B900008BD05F077F8FBE708B5012001F0C0F9C2
:100BA00008BD000008B5024800F0D8FF08BD00BF2E
:100BB000B809002008B5024800F001FD08BD00BFDB
:100BC000D405002008B5024802F09BFB08BD00BF19
:100BD0009808002008B5024803F0E2F808BD00BFFD
:100BE000180A002008B5024801F06AFB08BD00BFE2
:100BF000C880002008B5024803F0D2F808BD00BF45
:100C00005C0A0020034AD2F8883043F47003C2F82B
:100C10008830704700ED00E000B585B003681D4ADC
:100C2000934208D01C4A934219D01C4A934223D0C5
:100C300005B05DF804FB00220192194B596C41F09C
:100C4000010159645B6C03F001030193019B0521D1
:100C5000192000F0EBFD192000F020FEE8E700234A
:100C600002930F4B1A6C42F004021A641B6C03F0DF
:100C700004030293029BDBE700230393084B1A6CE7
:100C800042F008021A641B6C03F008030393039BF1
:100C9000CEE700BF0000014000080040000C00400B
:100CA000003802400268094B9A4200D0704782B077
:100CB00000230193064B5A6C42F002025A645B6CAB
:100CC00003F002030193019B02B07047000401404E
:100CD0000038024070B58AB000230593069307934D
:100CE0000893099303683F4A93420AD03E4A9342CD
:100CF0001FD03E4A934233D03D4A934247D00AB078
:100D000070BD002300933B4B1A6B42F010021A6334
:100D10001B6B03F010030093009B4FF4D443059327
:100D2000022306930123099305A9334801F004F82F
:100D3000E5E7002301932F4B1A6B42F008021A6378
:100D40001B6B03F008030193019B4FF48043059351
:100D500002230693099305A9284800F0EDFFCEE78A
:100D600000230293234B1A6B42F080021A631B6B21
:100D700003F080030293029B4FF4E0530593022398
:100D80000693099305A91E4800F0D6FFB7E7002493
:100D90000394184B1A6B42F480721A631A6B02F4B4
:100DA00080720392039A04941A6B42F004021A634D
:100DB0001B6B03F004030493049BC02305930226DA
:100DC00006960325099505A90E4800F0B5FF4023B6
:100DD0000593069607940894099505A90A4800F01A
:100DE000ABFF8CE70000014000080040000C004011
:100DF000000401400038024000100240000C024094
:100E0000001C0240002002400008024010B596B0CD
:100E1000002412941394149415941094119409942A
:100E20000A940B940C940D940E940F942022214656
:100E300001A806F00DFE3E483E4B0360A723436029
:100E4000846044F61F63C36004614461846102F0FE
:100E500079FB002850D14FF48053129312A93448E3
:100E600002F07BFC00284AD1314802F097FB0028B1
:100E700048D100231093119310A92D4802F07EFD54
:100E8000002842D16023099341F288330A9300225B
:100E90000B920C920D920E920F9209A9244802F027
:100EA000E1FB002834D14FF4FA630A93042209A924
:100EB0001F4802F0D7FB70BB082209A91C4802F0AA
:100EC000D1FB58BB0C2209A9194802F0CBFB40BB4F
:100ED0000023019302930393049305934FF400526C
:100EE0000692089301A9124802F08EFDE0B910485D
:100EF000FFF7F0FE16B010BDFFF78EFDABE7FFF772
:100F00008BFDB1E7FFF788FDB3E7FFF785FDB9E794
:100F1000FFF782FDC7E7FFF77FFDCDE7FFF77CFD19
:100F2000D0E7FFF779FDD3E7FFF776FDDFE700BFF6
:100F3000980800200000014000B58FB000230A93FC
:100F40000B930C930D9308930993019302930393CE
:100F500004930593069307932248234A02600122D3
:100F60004260836040F2E732C2600361836102F055
:100F7000E9FA38BB4FF480530A930AA9194802F0E2
:100F8000ECFB10BB174802F009FB08BB00230893D9
:100F9000099308A9134802F0F1FCE0B9602301931A
:100FA0004FF4FA730293002303930593082201A9D7
:100FB0000C4802F057FB88B90A48FFF78BFE0FB0C8
:100FC0005DF804FBFFF728FDD4E7FFF725FDD9E71F
:100FD000FFF722FDDAE7FFF71FFDDFE7FFF71CFD54
:100FE000EAE700BFE00800200008004000B58FB02D
:100FF00000230A930B930C930D9308930993019389
:101000000293039304930593069307932A482B4A6C
:10101000026053224260836040F2E732C2600361A3
:10102000836102F08FFA002831D14FF480530A9384
:101030000AA9214802F091FB60BB1F4802F0AEFAFA
:1010400058BB00230893099308A91B4802F096FC9B
:1010500030BB60230193002202920392059201A902
:10106000154802F0FFFAF0B904220DEB0201124814
:1010700002F0F8FAD0B9082201A90F4802F0F2FAFA
:10108000B8B90D48FFF726FE0FB05DF804FBFFF777
:10109000C3FCCAE7FFF7C0FCCFE7FFF7BDFCD0E712
:1010A000FFF7BAFCD5E7FFF7B7FCDDE7FFF7B4FCC5
:1010B000E1E7FFF7B1FCE4E728090020000C00405D
:1010C00010B592B000241094119409940A940B94D2
:1010D0000C940D940E940F942022214601A806F042
:1010E000B7FC2D482D4B0360A7234360846044F672
:1010F0001F63C36004614461846102F04FFA0028F9
:1011000038D100231093119310A9234802F036FC24
:10111000002832D1602309934FF4FA630A93002226
:101120000B920C920D920E920F9209A91A4802F09E
:1011300099FA28BB042209A9174802F093FA10BBB8
:10114000082209A9144802F08DFAF8B90023019386
:1011500002930393049305934FF40052069208936D
:1011600001A90D4802F050FC98B90B48FFF7B2FDF9
:1011700012B010BDFFF750FCC3E7FFF74DFCC9E705
:10118000FFF74AFCD6E7FFF747FCD9E7FFF744FC37
:10119000DCE7FFF741FCE8E77009002000040140AC
:1011A00008B50B480B4B03600B4B43600023836077
:1011B000C3604FF4806202610C2242618361C361AB
:1011C00002F034FD00B908BDFFF726FCFBE700BFC5
:1011D000180A002000480040A086010008B50A480F
:1011E0000A4B03604FF4E133436000238360C36024
:1011F00003610C2242618361C36102F017FD00B9F3
:1012000008BDFFF709FCFBE75C0A00200014014061
:1012100030B58BB000230593069307930893099389
:1012200003683E4A934204D03D4A934249D00BB0F2
:1012300030BD0446002501953A4B1A6C42F48022D9
:101240001A641A6C02F480220192019A02951A6BB8
:1012500042F004021A631B6B03F004030293029B27
:101260004FF4406305930223069303230893072357
:10127000099305A92C4800F05FFD2C482C4B036016
:101280004FF0006343608560C5604FF48063036185
:1012900045618561C5614FF400330362456200F02A
:1012A00099FB58B9214BA3639C6300220521272099
:1012B00000F0BCFA272000F0F1FAB8E7FFF7ACFB2A
:1012C000F0E700240394174B5A6C42F020025A6452
:1012D0005A6C02F020020392039A04941A6B42F0B3
:1012E00040021A631B6B03F040030493049B4FF40A
:1012F0008443059302230693032308930823099349
:1013000005A90C4800F018FD22460521472000F0F1
:101310008DFA472000F0C2FA89E700BF004800407C
:10132000001401400038024000080240B8090020C3
:101330002860024000180240DFF834D00D480E4902
:101340000E4A002302E0D458C4500433C4188C421F
:10135000F9D30B4A0B4C002301E013600432A24284
:10136000FBD3FFF74FFC06F04FFBFFF7ADFB7047D9
:101370000000022000000020B40500203880000892
:10138000B4050020BC8A0020FEE7000010B504462A
:101390000E4B18784FF47A73B3FBF0F30C4A1068D5
:1013A000B0FBF3F000F088FA68B90F2C01D90120E6
:1013B0000AE0002221464FF0FF3000F037FA054BDB
:1013C0001C60002000E0012010BD00BF04000020D0
:1013D000000000200800002008B50B4B1A6842F4FA
:1013E00000721A601A6842F480621A601A6842F445
:1013F00080721A60032000F007FA0F20FFF7C6FF83
:10140000FFF794FB002008BD003C0240034A11682E
:10141000034B1B780B441360704700BFA00A0020E9
:1014200004000020014B1868704700BFA00A00208C
:1014300038B50446FFF7F6FF0546B4F1FF3F02D08A
:10144000044B1B781C44FFF7EDFF401BA042FAD36E
:1014500038BD00BF04000020002800F0A18038B58E
:10146000044690F82030D3B12268136843F001039A
:101470001360FFF7D7FF054623685A6812F0010F83
:1014800010D1FFF7CFFF401B0A28F5D9636A43F458
:1014900000336362052384F82030012038BDFFF754
:1014A000F3F8E1E71A6822F002021A60FFF7BAFFC8
:1014B000054623685A6812F0020F0DD0FFF7B2FFFD
:1014C000401B0A28F5D9636A43F40033636205239D
:1014D00084F820300120E1E7227E012A3DD01A68FD
:1014E00022F080021A60637E012B3BD022681368D1
:1014F00023F040031360A37E012B39D022681368C8
:1015000023F020031360E37E012B37D02268136899
:1015100043F010031360237F012B35D0226813683A
:1015200023F008031360637F012B33D02268136814
:1015300023F004031360A368E26813432269134392
:10154000626913436268013A21681343CB6100204A
:101550006062012384F82030A0E71A6842F080021C
:101560001A60C0E72268136843F040031360C2E7C3
:101570002268136843F020031360C4E722681368ED
:1015800023F010031360C6E72268136843F00803D2
:101590001360C8E72268136843F004031360CAE7C6
:1015A0000120704770477047704770477047704719
:1015B00070477047704770477047704770472DE914
:1015C000F84F054603685C69D3F804809F68D3F838
:1015D0000CB0D3F810A0D3F8189014F001063BD04B
:1015E00017F0010616D001229A6017F0020F08D1F9
:1015F00017F0040F0CD117F0080606D04FF48056F0
:1016000008E0FFF7CFFF002604E0FFF7CEFF01E080
:101610004FF4006617F4807F0DD02B684FF4807272
:101620009A6017F4007F40F0868017F4806F00F016
:10163000868046F4005617F4803F0DD02B684FF497
:1016400080329A6017F4003F40F0838017F4802FB7
:1016500000F0838046F4004614F0080F07D01BF01A
:10166000100F04D046F400762B681022DA6014F0D4
:10167000040F02D01BF0080F79D114F0020F04D030
:101680002B68DB6813F0030F78D114F0400F07D0FC
:101690001AF0100F04D046F480662B6810221A61ED
:1016A00014F0200F02D01AF0080F6BD114F0100FB5
:1016B00004D02B681B6913F0030F6AD114F4003FA8
:1016C00002D018F0100F68D114F4803F02D018F047
:1016D000080F69D114F4004F7AD018F0040F74D0B9
:1016E00014F4807F04D019F0010F01D046F00106F8
:1016F00014F4007F04D019F0020F01D046F0020666
:1017000014F4806F04D019F0040F01D046F00406E1
:1017100014F4006F59D019F0700956D0B9F1400F88
:1017200065D058D8B9F1200F5ED0B9F1300F42D151
:1017300046F0200644E02846FFF735FF7BE717F424
:10174000006F02D046F4804675E72846FFF72EFF6B
:1017500071E72846FFF728FF7EE717F4002F02D035
:1017600046F4803678E72846FFF721FF74E72B68B8
:101770000822DA602846FFF71CFF7EE72846FFF7BD
:1017800017FF82E72B6808221A612846FFF713FF2C
:101790008CE72846FFF70EFF90E72B6810225A606F
:1017A0002846FFF709FF8FE72B6808225A60284672
:1017B000FFF703FF8EE7B9F1100F01D146F00806DD
:1017C0002A68936923F0700393612B6804225A609E
:1017D0009EB9BDE8F88FB9F1500F0BD0B9F1600F89
:1017E000EED146F48076EBE746F01006E8E746F0E7
:1017F0004006E5E746F08006E2E76B6A1E436E624C
:101800002846FFF7DBFEE4E7074AD36823F4E063EA
:101810001B041B0C000200F4E060034343F0BF63B1
:1018200043F40033D360704700ED00E000B5194B7E
:10183000DB68C3F30223C3F1070CBCF1040F28BF1C
:101840004FF0040C03F1040EBEF1060F18D9033B50
:101850004FF0FF3E0EFA0CFC21EA0C0199400EFA03
:1018600003F322EA0303194300280BDB0901C9B281
:1018700000F1604000F5614080F800135DF804FB62
:101880000023E5E700F00F000901C9B2024B19542B
:10189000F4E700BF00ED00E014ED00E0002807DBF6
:1018A00000F01F02400901239340024A42F8203011
:1018B000704700BF00E100E00138B0F1807F0BD23B
:1018C0004FF0E0235861054AF02182F823100020F0
:1018D000986107221A6170470120704700ED00E00F
:1018E00058B110B5044643791BB101236371002040
:1018F00010BD0371FEF760FFF7E70120704700009D
:1019000010B40368D9B210390C4AA2FB0142120983
:101910000B4CA25CC2655F2909D923F47F7323F0C5
:10192000030304338365806D5DF8044B704723F433
:101930007F7323F003038365F5E700BFABAAAAAA70
:10194000C87C0008836A826992B9012B0AD0022BF5
:1019500002D00BB100207047C36A13F0807F28D1FA
:1019600000207047C36AB3F1C07F24D000207047C5
:10197000B2F5005F09D0022B25D9032B25D1C36A0C
:1019800013F0807F23D100207047032B03D8DFE8BA
:1019900003F01404140A00207047C36A13F0807F18
:1019A0000DD100207047C36AB3F1C07F09D0002079
:1019B00070470120704701207047012070470120C7
:1019C00070470120704701207047002070470120B8
:1019D0007047000070B50446FFF724FD002C5BD073
:1019E0000546022384F83530002384F83430226819
:1019F000136823F00103136023681A6812F0010FC3
:101A00000AD0FFF70FFD431B052BF5D92023636593
:101A1000032084F8350070BD1A68204810406168C2
:101A2000A2680A43E1680A4321690A4361690A43DB
:101A3000A1690A43E1690A43216A0A430243616AD0
:101A400004291ED01A602668756925F00705636AA7
:101A50001D43042B07D1A36A1D43E36A1BB1204633
:101A6000FFF770FF90B975612046FFF749FFE26DFF
:101A70003F239340836000206065012384F8353064
:101A8000C9E7E16A206B01430A43DBE74023636552
:101A9000012084F83500BEE70120BCE73F8010F04C
:101AA00070B50446866DFFF7BDFC94F83530DBB2A7
:101AB000022B06D080236365002384F83430012094
:101AC00070BD05462268136823F016031360226870
:101AD000536923F080035361236CE3B122681368D8
:101AE00023F0080313602268136823F001031360D6
:101AF00023681B6813F0010F11D0FFF793FC431B01
:101B0000052BF5D920236365032084F835000023D5
:101B100084F83430D4E7A36C002BDFD1E3E7E26D27
:101B20003F239340B360012384F83530002084F8CC
:101B30003400C5E790F83530DBB2022B03D08023A8
:101B4000436501207047052380F83530026813682B
:101B500023F001031360002070470000F0B583B04C
:101B6000044600230193724B1D68724BA3FB05359D
:101B7000AD0A876D3E68C26D08239340334210D092
:101B800003681A6812F0040F0BD01A6822F00402DE
:101B90001A60C26D08239340BB60436D43F001039C
:101BA0004365E26D01239340334209D022685269B4
:101BB00012F0800F04D0BB60636D43F002036365D5
:101BC000E26D04239340334209D02268126812F078
:101BD000020F04D0BB60636D43F004036365E26DE4
:101BE00010239340334224D02268126812F0080F69
:101BF0001FD0BB6023681A6812F4802F0DD01B68B9
:101C000013F4002F04D1236C9BB12046984710E0B9
:101C1000A36C73B1204698470BE01A6812F4807FDA
:101C200003D11A6822F008021A60236C0BB1204617
:101C30009847E26D20239340334255D022681268C2
:101C400012F0100F50D0BB6094F83530DBB2052B8A
:101C50000ED023681A6812F4802F33D01B6813F457
:101C6000002F2AD1636C002B3ED0204698473BE0E2
:101C70002268136823F0160313602268536923F067
:101C800080035361236CA3B12268136823F0080317
:101C90001360E26D3F239340BB60012384F835302D
:101CA000002384F83430236D002B3FD02046984722
:101CB0003CE0A36C002BE7D1EBE7E36BA3B120463C
:101CC000984711E01A6812F4807F09D11A6822F04F
:101CD00010021A60012384F83530002384F8343070
:101CE000E36B0BB120469847636DFBB1636D13F056
:101CF000010F17D0052384F835302268136823F0CC
:101D000001031360019B01330193AB4204D82368A4
:101D10001B6813F0010FF5D1012384F8353000233F
:101D200084F83430E36C0BB12046984703B0F0BD23
:101D300000000020B5814E1B00230F2B00F2E48031
:101D400070B582B060E085685E000324B44025EA87
:101D50000405CC68B4402C438460456825EA02053C
:101D60004C68C4F300129A402A4342605AE0DC08EF
:101D7000083450F8246003F0070295000F22AA40AF
:101D800026EA020E0A69AA4042EA0E0240F824201E
:101D90005CE0072200E0002202FA0EF22A4302343D
:101DA0005A4D45F824205A4A14686FEA0C0224EA76
:101DB0000C054E6816F4803F01D04CEA0405544CE3
:101DC0002560646802EA04054E6816F4003F01D0FD
:101DD0004CEA04054E4C6560A46802EA04054E68AE
:101DE00016F4801F01D04CEA0405494CA560E46854
:101DF00022404D6815F4001F01D04CEA0402444C07
:101E0000E26001330F2B7DD801229A400C6804EA6E
:101E1000020C32EA0404F4D14C6804F00304013CDF
:101E2000012C90D94A6802F00302032A09D0C46841
:101E30005D000322AA4024EA02048A68AA402243E1
:101E4000C2604A6802F00302022A90D004684FEA96
:101E5000430E032202FA0EF224EA02044A6802F058
:101E6000030202FA0EF2224302604A6812F4403F73
:101E7000C7D000220192274A546C44F48044546431
:101E8000526C02F480420192019A9C08A51C1F4AE0
:101E900052F8255003F003024FEA820E0F2202FA95
:101EA0000EF225EA02051C4A90423FF474AF02F597
:101EB000806290421AD002F58062904218D002F5FA
:101EC0008062904216D002F58062904214D002F5F2
:101ED0008062904212D002F58062904210D002F5EA
:101EE000806290423FF455AF082255E7012253E744
:101EF000022251E703224FE704224DE705224BE778
:101F0000062249E702B070BD704700BF00380140AB
:101F1000003C0140003802400000024070470000D1
:101F200008B5054B5B69034200D108BD024B5861FF
:101F3000FFF7F4FFF9E700BF003C01402DE9F04353
:101F400083B0D0F80080C1EBC10300EB83035A6D6E
:101F50001B6D9A4254D807460C469B1AC1EBC1022E
:101F600000EB8202526C9A4200D31A4602F1030936
:101F70004FEA990915E006F103094FEA9909C4EB04
:101F8000C40507EB8505A96C3B7C0093B3B2E2B2B4
:101F9000404602F08DFBAB6C3344AB646B6D334455
:101FA0006B6508EB441303F510639B699BB24B45CB
:101FB00012D3C4EBC40207EB8202516D136D994238
:101FC0000AD24BB15B1AC4EBC40207EB8202566C17
:101FD0009E42D0D31E46CEE7C4EBC40007EB800779
:101FE0003A6D7B6D9A420FD804F00F040123A34091
:101FF000D8F8344824EA0304C8F83448002000E044
:10200000012003B0BDE8F0830020FAE770B58AB084
:10201000002800F090800546046890F8BD333BB37B
:10202000032385F8BD33E36B13F4807F01D10023D4
:102030002B61286802F0D8F82C4654F8106BEC4657
:102040000FCCACE80F000FCCACE80F0094E8030015
:102050008CE803002B1D0ECB304602F007F8044637
:1020600058B1022385F8BD33012420460AB070BD63
:1020700080F8BC3305F0C8F8D2E70021286802F0E8
:1020800031FD234616E0C3EBC30205EB82020121BA
:1020900082F83D1082F83C30A2F84230002182F8EC
:1020A0003F1051649164C3EBC30205EB82021165DA
:1020B0000133DBB269688B42E5D316E0C4EBC4039D
:1020C00005EB8303002283F8FD2183F8FC4183F8AC
:1020D000FF21C3F80422C3F80822C4EBC40305EBB4
:1020E0008303C3F810220134E4B2A142E6D82C469F
:1020F00054F8106BEC460FCCACE80F000FCCACE8FA
:102100000F0094E803008CE803002B1D0ECB304633
:1021100002F0A6F8044620B1022385F8BD3301245D
:10212000A3E7002385F83830012385F8BD332868FC
:1021300002F095FC99E7012497E7026890F8BC3318
:10214000012B19D010B50446012380F8BC33836AF3
:10215000012B09D0206802F041F8206802F071FCE0
:10216000002084F8BC0310BD8369012BF2D0936B6F
:1021700043F480339363EDE70220704770B5044663
:102180000D460068066C00EB411303F530639A6856
:102190002169012911D034498E424ED03DB9C5EB99
:1021A000C50304EB8303D3F81032002B56D0E9B2F9
:1021B000204605F073F8002070BD12F0080F09D01A
:1021C0002A498E42F7D912F4004FF4D04FF400425E
:1021D0009A60F0E712F0200F02D020229A60EAE71E
:1021E00012F0280FE7D121498E4206D912F4004F90
:1021F00003D04FF400429A60DDE7C5EBC50204EB63
:102200008202D2F804121B69C3F31203CB1AC2F87C
:102210001432D2F808320B44C2F8083215B9D2F899
:10222000103223B1E9B2204605F038F8C3E704F5CF
:102230007172012102F098FCF4E712F4004F03D010
:102240004FF400429A60B6E712F0200F01D020222E
:102250009A60E9B2204605F021F8ACE704F5717206
:10226000002102F081FCA2E70A31544F0A30544F9A
:1022700038B5044603681D6C03EB4113D3F8081B03
:102280000E4A954207D903F5306311F4004F02D08E
:102290004FF400429A60204604F0F8FF074B9D423D
:1022A00002D92369012B01D0002038BD04F57172D9
:1022B0000121206802F058FCF6E700BF0A30544FB5
:1022C0002DE9F84F04460568284602F007FC08B1DE
:1022D000BDE8F88F0646206802F0CFFB0028F7D053
:1022E000206802F0CAFB10F0020F04D02268536984
:1022F00003F002035361206802F0BFFB10F0100FDF
:1023000013D02268936923F0100393612F6A07F0BA
:102310000F08C7F34343022B68D0062B00F08480DC
:102320002268936943F010039361206802F0A5FBD3
:1023300010F4002F40F08A80206802F09EFB10F419
:10234000802F40F0CC80206802F097FB0028C0F27C
:102350003681206802F091FB10F4006F0AD0D5F8A6
:10236000083813F0010F40F044812268536903F4E8
:1023700000635361206802F080FB10F4805F40F03E
:102380003C81206802F079FB10F4005F40F09181FD
:10239000206802F072FB10F0080F40F0A281206864
:1023A00002F06BFB10F4801F40F0A481206802F063
:1023B00064FB10F4001F40F0A781206802F05DFB71
:1023C00010F0804F40F0AA81206802F056FB10F018
:1023D000040F3FF47DAF23685D6815F0040F40F0F3
:1023E000A681226853682B43536071E747F6F07368
:1023F0001F4295D04FEA171BC8EBC80904EB8909A7
:10240000C7F30A12D9F80812284602F085FACBF36E
:102410000A02D9F808321344C9F80832D9F814323C
:102420001A44C9F814227BE7082204F57171284682
:1024300002F072FAC7F30A17C8EBC80204EB820273
:10244000D2F814321F44C2F8147269E7206802F00F
:1024500018FB0746B04616E005EB48130122C3F807
:10246000082B41462046FFF789FE1BE005EB481389
:102470000822C3F8082B41462046FFF7F9FE14E076
:1024800008F101087F08002F3FF456AF17F0010F45
:10249000F6D05FFA88F1206802F003FB814610F065
:1024A000010FD9D119F0080FE0D119F0100F04D0A5
:1024B00005EB48131022C3F8082B19F0200F04D0A5
:1024C00005EB48132022C3F8082B19F4005FD7D07E
:1024D00005EB48134FF40052C3F8082BD0E72068EF
:1024E00002F0D7FA0746B04629E05146204604F0EC
:1024F000E1FE19F0080F04D005EB48130822C3F8D9
:10250000082919F0100F04D005EB48131022C3F866
:10251000082919F0400F04D005EB48134022C3F8F6
:10252000082919F0020F04D005EB48130222C3F862
:10253000082919F0800F3DD108F101087F08002F0C
:102540003FF401AF17F0010FF6D05FFA88FA514659
:10255000206802F0AFFA814610F0010FC9D008F0F0
:102560000F03012101FA03F2D5F8343823EA0203FC
:10257000C5F8343805EB4813C3F8081923698B42B2
:10258000B3D1C8EBC80304EB8303596C9A6C0A44BB
:102590009A64B8F1000FA8D1C8EBC80304EB830319
:1025A0001B6D002BA1D104F571720121206802F08E
:1025B000DBFA9AE741462046FFF7C0FCBCE7D5F8B6
:1025C000043823F00103C5F8043894F8F433012BE0
:1025D00008D0204604F0AEFE2268536903F00043A1
:1025E0005361B6E6002184F8F413204600F045FA62
:1025F000F2E7204604F086FEB7E605F500677B6843
:1026000023F001037B601021206801F0F3FD20E03E
:1026100005EB46134FF67F31C3F80819D3F80029AC
:1026200022F40012C3F80029D3F8002942F0006216
:10263000C3F80029C3F8081BD3F8002B22F40012BA
:10264000C3F8002BD3F8002B42F00062C3F8002B34
:1026500001366368B342DBD8FB6943F00113FB61C9
:10266000236BDBB1D7F8843043F00B03C7F8843019
:102670007B6C43F00B037B64D5F8003823F4FE63D6
:10268000C5F8003804F57172217C206802F06CFAFC
:102690002268536903F48053536172E67B6943F403
:1026A000005343F02B037B613B6943F00B033B6119
:1026B000E2E7206802F047FA206801F099FEE06046
:1026C000256800F0DFFC0146227B284601F014FD5E
:1026D000204604F000FE2268536903F4005353615E
:1026E00056E6204604F0F1FD2268536903F0080322
:1026F000536154E60021204604F028FE2268536905
:1027000003F48013536151E60021204604F018FEC3
:102710002268536903F4001353614EE6204604F027
:102720001BFE2268536903F0804353614CE6204648
:1027300004F018FE55E690F8BC33012B0DD010B50F
:102740000446012380F8BC3380F83810006802F09A
:1027500068F9002084F8BC0310BD0220704738B52A
:1027600005468C4611F0800F29D101F00F0ECEEBFB
:10277000CE04A40004F5FC740444211DCEEBCE0E5F
:1027800000EB8E0E00208EF8FD010CF00F0C81F88E
:1027900000C08A60CB704A780AB1A1F806C0022B4B
:1027A0001DD095F8BC33012B1CD0012385F8BC3318
:1027B000286801F02EFE002085F8BC0338BD01F02A
:1027C0000F00C0EBC0018900383129440431C0EB4F
:1027D000C00005EB8000012480F83D40D5E70023D0
:1027E0000B71DEE70220E9E710B504460A4611F056
:1027F000800F20D101F00F00C0EBC0039B0003F558
:10280000FC732344191DC0EBC00004EB80000023BF
:1028100080F8FD3102F00F020A7094F8BC33012BEE
:1028200019D0012384F8BC33206801F041FE002058
:1028300084F8BC0310BD01F00F00C0EBC0039B0087
:1028400038332344191DC0EBC00004EB8000012382
:1028500080F83D30DEE70220ECE710B501F00F0410
:10286000C4EBC401890001F5FC7101440431C4EBDF
:10287000C40C00EB8C0CCCF80822CCF810320023EE
:10288000CCF814328CF8FD318CF8FC410369012B33
:1028900006D064B9DAB2006801F07AFE002010BDFB
:1028A000C4EBC40C00EB8C0CCCF80C22F1E7DAB2D0
:1028B000006801F015FFF1E701F00F01C1EBC10164
:1028C00000EB8101D1F81402704710B501F00F043C
:1028D000C4EBC4018900383101440431C4EBC40C99
:1028E00000EB8C0CCCF84820CCF850300023CCF80E
:1028F000543001238CF83D308CF83C400369012BA7
:1029000006D064B9DAB2006801F042FE002010BDC2
:10291000C4EBC40C00EB8C0CCCF84C20F1E7DAB221
:10292000006801F0DDFEF1E738B501F00F054268FF
:10293000954239D804460B4611F0800F1FD1C1EBE8
:10294000C101890001F5FC7101440431C3EBC303EB
:1029500000EB8303002283F8FD2101238B700D70AF
:1029600094F8BC33012B21D0012384F8BC332068B8
:1029700001F0FCFF8DB1002084F8BC0338BDC5EB2D
:10298000C5018900383101440431C5EBC50300EBB2
:102990008303012283F83D20DFE704F57172217C77
:1029A000206802F0E1F8E6E70120E7E70220E5E72A
:1029B00001F00F034268934231D810B5044611F07C
:1029C000800F1ED1C3EBC301890001F5FC710144E6
:1029D0000431C3EBC30200EB8202002082F8FD0148
:1029E00000228A700B7094F8BC33012B19D001239C
:1029F00084F8BC33206801F0E6FF002084F8BC03B3
:102A000010BDC3EBC3018900383101440431C3EB6D
:102A1000C30200EB8202012082F83D00E0E70120C2
:102A200070470220ECE710B40468606A31B940EAEC
:102A30000240A06200205DF8044B70478C46A36AF8
:102A400000EB1340002308E003F1400104EB810197
:102A5000496800EB11400133DBB20CF1FF318B42CE
:102A6000F2D340EA02400CF13F0104EB81014860DF
:102A7000E0E703685962002070477047002800F0C3
:102A8000E08170B582B00446036813F0010F3BD0BB
:102A90009F4B9B6803F00C03042B2CD09C4B9B6832
:102AA00003F00C03082B21D06368B3F5803F4FD0AF
:102AB000B3F5A02F52D0964B1A6822F480321A60D8
:102AC0001A6822F480221A606368002B50D0FEF747
:102AD000A9FC05468E4B1B6813F4003F14D1FEF78A
:102AE000A1FC401B6428F5D90320B1E1884B5B6849
:102AF00013F4800FD8D0864B1B6813F4003F03D02B
:102B00006368002B00F09F81236813F0020F54D0FC
:102B10007F4B9B6813F00C0F3ED07D4B9B6803F0FE
:102B20000C03082B33D0E368002B68D0794B0122CB
:102B30001A60FEF777FC0546754B1B6813F0020F11
:102B400054D1FEF76FFC401B0228F5D903207FE12A
:102B50006F4A136843F480331360B5E76C4B1A680F
:102B600042F480221A601A6842F480321A60ABE79D
:102B7000FEF758FC0546664B1B6813F4003FC3D0B4
:102B8000FEF750FC401B6428F5D9032060E1604B40
:102B90005B6813F4800FC6D15D4B1B6813F0020F06
:102BA00003D0E368012B40F05081594A136823F0A9
:102BB000F803216943EAC1031360236813F0080F87
:102BC00042D063696BB3534B0122C3F8802EFEF7EA
:102BD00029FC05464E4B5B6F13F0020F34D1FEF714
:102BE00021FC401B0228F5D9032031E1484A136833
:102BF00023F0F803216943EAC1031360DDE7454B85
:102C000000221A60FEF70EFC0546414B1B6813F0CC
:102C1000020FD2D0FEF706FC401B0228F5D9032094
:102C200016E13C4B0022C3F8802EFEF7FBFB054665
:102C3000374B5B6F13F0020F06D0FEF7F3FB401B20
:102C40000228F5D9032003E1236813F0040F77D09D
:102C50002F4B1B6C13F0805F33D1002301932C4B5F
:102C60001A6C42F080521A641B6C03F0805301937B
:102C7000019B0125284B1B6813F4807F23D0A36898
:102C8000012B34D0052B38D0214B1A6F22F00102D2
:102C90001A671A6F22F004021A67A368002B3DD04E
:102CA000FEF7C0FB06461A4B1B6F13F0020F46D10E
:102CB000FEF7B8FB801B41F288339842F3D903201A
:102CC000C6E00025D6E7144A136843F48073136006
:102CD000FEF7A8FB0646104B1B6813F4807FCED18D
:102CE000FEF7A0FB801B0228F5D90320B0E0084ABC
:102CF000136F43F001031367CFE7054B1A6F42F0E0
:102D000004021A671A6F42F001021A67C5E700BF92
:102D1000003802400000474200700040FEF782FB8E
:102D20000646524B1B6F13F0020F08D0FEF77AFBDA
:102D3000801B41F288339842F3D9032088E0EDB933
:102D4000A369002B00F08380484A926802F00C02CD
:102D5000082A51D0022B17D0454B00221A66FEF7E5
:102D600061FB0446414B1B6813F0007F42D0FEF725
:102D700059FB001B0228F5D9032069E03B4A136C7C
:102D800023F080531364DBE7394B00221A66FEF709
:102D900049FB0546354B1B6813F0007F06D0FEF754
:102DA00041FB401B0228F5D9032051E0E369226A68
:102DB0001343626A43EA8213A26A5208013A43EA61
:102DC0000243E26A43EA0263284A5360284B012225
:102DD0001A66FEF727FB0446244B1B6813F0007F9E
:102DE00006D1FEF71FFB001B0228F5D903202FE0B8
:102DF00000202DE000202BE0012B2BD01B4B5B682B
:102E000003F48001E269914226D103F03F02216A76
:102E10008A4223D1616A47F6C0721A40B2EB811F21
:102E20001ED103F44031A26A5208013AB1EB024FBD
:102E300018D103F07063E26AB3EB026F14D1002083
:102E400006E001207047012002E0012000E00020A0
:102E500002B070BD0120FBE70120F9E70120F7E790
:102E60000120F5E70120F3E70120F1E700380240F7
:102E700000004742014B0122DA64704700004742DC
:102E800008B5254B9B6803F00C03042B3FD0082B9F
:102E90003FD1214B5A6802F03F025B6813F4800F68
:102EA00012D01D4B5968C1F388111C480023A1FBA7
:102EB0000001FDF78DF9184B5B68C3F30143013343
:102EC0005B00B0FBF3F025E0134B5968C1F3881C9D
:102ED0004FEA4C11B1EB0C006EEB0E0E4FEA8E1365
:102EE00043EA90638101091A63EB0E03DB0043EAB6
:102EF0005173C90011EB0C0C43F10003990200233C
:102F00004FEA8C2041EA9C51FDF762F9D3E7034870
:102F100000E0034808BD00BF00380240001BB700B6
:102F20000024F400002800F09B8070B50D46044694
:102F30004F4B1B6803F007038B4208D2CBB24C4ABD
:102F40001370136803F007038B4240F08B802368F3
:102F500013F0020F17D013F0040F04D0454A936802
:102F600043F4E0539360236813F0080F04D0414A00
:102F7000936843F4604393603E4A936823F0F00300
:102F8000A1680B439360236813F0010F32D063688C
:102F9000012B21D09A1E012A25D9364A126812F037
:102FA000020F61D033498A6822F0030213438B6019
:102FB000FEF738FA06462F4B9B6803F00C03626855
:102FC000B3EB820F16D0FEF72DFA801B41F2883347
:102FD0009842F0D9032042E0264A126812F4003FDA
:102FE000E0D101203BE0234A126812F0007FD9D1E2
:102FF000012034E01E4B1B6803F00703AB4207D9E6
:10300000EAB21B4B1A701B6803F00703AB422DD1C9
:10301000236813F0040F06D0164A936823F4E05394
:10302000E1680B439360236813F0080F07D0114A3F
:10303000936823F46043216943EAC1039360FFF777
:103040001FFF0C4B9B68C3F303130B4AD35CD840A0
:103050000A4B18600A4B1868FEF798F9002070BDFB
:10306000012070470120FAE70120F8E70120F6E788
:10307000003C024000380240B07C00080000002004
:1030800008000020014B1868704700BF00000020B6
:1030900008B5FFF7F7FF044B9B68C3F38223034A8D
:1030A000D35CD84008BD00BF00380240C07C000897
:1030B00008B5FFF7E7FF044B9B68C3F34233034AAD
:1030C000D35CD84008BD00BF00380240C07C000877
:1030D0007047000008B5064BDB6813F0800F00D185
:1030E00008BDFFF7F5FF024B80229A73F8E700BF97
:1030F0000038024030B4036A23F001030362036A1C
:103100004268846924F073040D682C4323F0020C98
:103110008B6843EA0C03104DA84203D005F5806587
:10312000A84205D123F00803CD682B4323F0040304
:10313000094DA84203D005F58065A84205D122F4C7
:1031400040724D692A438D692A43426084614A680E
:103150004263036230BC70470000014030B4036A30
:1031600023F480730362036A4268C46924F0730C19
:103170000C6844EA0C0523F400738C6843EA0423CA
:10318000114CA04203D004F58064A04206D123F480
:103190000063CC6843EA042323F480630A4CA04212
:1031A00003D004F58064A04207D122F440524C6958
:1031B00042EA04128C6942EA04124260C5614A681C
:1031C000C263036230BC70470000014030B4036A40
:1031D00023F480530362036A4468C26922F4E6421E
:1031E0000D6842EA052223F400538D6843EA053353
:1031F000094DA84203D005F58065A84204D124F406
:1032000080444D6944EA85144460C2614A6802649E
:10321000036230BC704700BF0000014010B4036A75
:10322000046A24F001040462846924F0F00C4CEA7E
:10323000021223F00A030B43826103625DF8044B20
:10324000704710B4046A24F0100404628469036AAD
:1032500024F4704C4CEA023223F0A00343EA011339
:10326000826103625DF8044B7047836823F070034A
:103270000B4343F0070383607047000090F83D3034
:10328000DBB2012B32D1022380F83D300368194AAA
:10329000934220D0B3F1804F1DD0A2F57C429342DF
:1032A00019D002F58062934215D002F580629342F4
:1032B00011D002F5784293420DD002F5705293423C
:1032C00009D0A2F59432934205D01A6842F0010267
:1032D0001A60002070479A6802F00702062A07D099
:1032E0001A6842F001021A600020704701207047FE
:1032F00000207047000001407047704770477047DA
:10330000704710B5044603681A6912F0020F11D015
:10331000DA6812F0020F0DD06FF002021A61012379
:10332000037703689B6913F0030F70D0FFF7E6FF84
:103330000023237723681A6912F0040F12D0DA6889
:1033400012F0040F0ED06FF004021A6102232377EB
:1033500023689B6913F4407F5FD02046FFF7CEFFC0
:103360000023237723681A6912F0080F12D0DA6855
:1033700012F0080F0ED06FF008021A6104232377B1
:103380002368DB6913F0030F4ED02046FFF7B6FF2A
:103390000023237723681A6912F0100F12D0DA681D
:1033A00012F0100F0ED06FF010021A61082323776D
:1033B0002368DB6913F4407F3DD02046FFF79EFF72
:1033C0000023237723681A6912F0010F03D0DA680B
:1033D00012F0010F36D123681A6912F0800F03D062
:1033E000DA6812F0800F34D123681A6912F0400FA6
:1033F00003D0DA6812F0400F32D123681A6912F054
:10340000200F03D0DA6812F0200F30D110BDFFF783
:1034100074FF2046FFF773FF8AE72046FFF76DFF32
:103420002046FFF76CFF9BE72046FFF766FF20462C
:10343000FFF765FFACE72046FFF75FFF2046FFF789
:103440005EFFBDE76FF001021A612046FFF754FFEF
:10345000C1E76FF080021A61204600F0FFFAC3E76F
:103460006FF040021A612046FFF74AFFC5E76FF090
:1034700020021A61204600F0F0FAC7E70368304ADC
:10348000904212D0B0F1804F0FD0A2F57C42904212
:103490000BD002F58062904207D002F58062904224
:1034A00003D002F57842904203D123F070034A68BA
:1034B0001343234A90422AD0B0F1804F27D0A2F57F
:1034C0007C42904223D002F5806290421FD002F5E8
:1034D000806290421BD002F57842904217D002F5EC
:1034E0007052904213D002F5806290420FD002F5E4
:1034F000806290420BD0A2F59832904207D002F53C
:103500008062904203D002F58062904203D123F49E
:103510004073CA68134323F080034A69134303606E
:103520008B68C3620B688362054B984203D003F536
:103530008063984201D10B690363012343617047A3
:103540000000014040B310B5044690F83D30F3B19F
:10355000022384F83D30214651F8040BFFF78EFF1B
:10356000012384F8463084F83E3084F83F3084F8F4
:10357000403084F8413084F8423084F8433084F895
:10358000443084F8453084F83D30002010BD80F888
:103590003C30FDF741FBDBE70120704740B310B53D
:1035A000044690F83D30F3B1022384F83D302146C3
:1035B00051F8040BFFF762FF012384F8463084F8CA
:1035C0003E3084F83F3084F8403084F8413084F84D
:1035D000423084F8433084F8443084F8453084F82D
:1035E0003D30002010BD80F83C30FDF75BFBDBE791
:1035F0000120704730B4036A23F010030362036AAA
:103600004468826922F4E6420D6842EA052223F00A
:1036100020038D6843EA0513114DA84203D005F538
:103620008065A84206D123F08003CD6843EA0513E4
:1036300023F040030A4DA84203D005F58065A84257
:1036400007D124F440644D6944EA85048D6944EA55
:103650008504446082614A688263036230BC7047BB
:103660000000014038B590F83C30012B66D004468C
:103670000D46012380F83C300C2A5AD8DFE802F0CE
:10368000075959591B59595930595959440000681B
:10369000FFF730FD2268936943F0080393612268C5
:1036A000936923F0040393612268936929690B43AA
:1036B000936100203EE00068FFF79CFF2268936959
:1036C00043F4006393612268936923F480639361F8
:1036D00022689369296943EA01239361002029E064
:1036E0000068FFF73BFD2268D36943F00803D3610C
:1036F0002268D36923F00403D3612268D36929695E
:103700000B43D361002015E00068FFF75FFD2268DE
:10371000D36943F40063D3612268D36923F48063DF
:10372000D3612268D369296943EA0123D361002068
:1037300000E00120002384F83C3038BD0220FCE783
:1037400010B4846824F47F4C42EA03220A4342EA1C
:103750000C0282605DF8044B704790F83C30012BFE
:1037600078D010B50446012380F83C30022380F85D
:103770003D300268936823F47F4323F0770393601E
:103780000B68602B4CD029D8402B54D00CD9502B2F
:1037900022D1CA6849680068FFF740FD50212068BF
:1037A000FFF763FD002005E0202B0DD009D9302B59
:1037B0000AD00120012384F83D30002384F83C30F6
:1037C00010BD0BB1102B05D119462068FFF74DFD38
:1037D0000020EFE70120EDE70120EBE7B3F5805F84
:1037E00034D0B3F5005F0CD1CB684A6889680068B3
:1037F000FFF7A6FF2268936843F48043936000209C
:10380000D8E7702B24D1CB684A6889680068FFF735
:1038100097FF2268936843F0770393600020C9E71D
:10382000CA6849680068FFF70CFD60212068FFF74F
:103830001CFD0020BEE7CA6849680068FFF7EEFC7F
:1038400040212068FFF711FD0020B3E70020B1E719
:103850000120AFE70220704701F01F01012303FAA6
:1038600001FC036A23EA0C030362036A02FA01F112
:103870000B4303627047000010B504460846002958
:1038800042D194F83E30DBB2013B18BF0123002B3C
:103890006ED1002851D1022384F83E300122014626
:1038A0002068FFF7D9FF2368334A934203D002F51B
:1038B0008062934203D15A6C42F400425A642368F6
:1038C0002D4A934249D0B3F1804F46D0A2F57C42B5
:1038D000934242D002F5806293423ED002F580626C
:1038E00093423AD002F57842934236D002F57052B4
:1038F000934232D0A2F5943293422ED01A6842F00D
:1039000001021A60002032E0042908D008290DD0F5
:1039100094F84130DBB2013B18BF0123B7E794F8BC
:103920003F30DBB2013B18BF0123B0E794F84030D1
:10393000DBB2013B18BF0123A9E7042805D0082802
:1039400007D0022384F84130A8E7022384F83F30EF
:10395000A4E7022384F84030A0E79A6802F0070247
:10396000062A07D01A6842F001021A60002010BD32
:103970000120FCE70020FAE70000014090F83C300D
:10398000012B3DD010B4012380F83C30022380F895
:103990003D3003685A689C6822F0700C0A6842EA5D
:1039A0000C025A600368174A93421AD0B3F1804F51
:1039B00017D0A2F57C42934213D002F58062934265
:1039C0000FD002F5806293420BD002F57842934209
:1039D00007D002F57052934203D0A2F5943293427D
:1039E00004D124F080044A6814439C60012380F8C9
:1039F0003D30002380F83C3018465DF8044B70479A
:103A0000022070470000014090F83C30012B22D08A
:103A1000012380F83C30CB6823F440738A68134359
:103A200023F480634A68134323F400630A68134352
:103A300023F480530A69134323F400534A69134360
:103A400023F48043CA69134302685364002380F857
:103A50003C30184670470220704770477047026834
:103A600002F10C0353E8003F23F490730C3242E858
:103A700000310029F3D1026802F1140353E8003F3A
:103A800023F00103143242E800310029F3D1036B23
:103A9000012B05D0202380F83E30002303637047BC
:103AA000026802F10C0353E8003F23F010030C32CC
:103AB00042E800310029F3D1ECE790F83D30DBB269
:103AC000212B01D0022070478368B3F5805F17D0A7
:103AD000036A5A1C02621A7803685A60C38C9BB24C
:103AE000013B9BB2C3844BB90268D36823F08003C7
:103AF000D3600268D36843F04003D360002070476E
:103B00000369002BE4D1036A1B880268C3F308032E
:103B10005360036A02330362E0E7000038B50446ED
:103B20000268136923F44053C1680B43136183682F
:103B30000269134342691343C2691A430168CB689F
:103B400023F4164323F00C031343CB60026853693C
:103B500023F4407381690B4353610368314A9342F4
:103B600006D002F58062934202D0FFF791FA01E09D
:103B7000FFF79EFAE369B3F5004F29D0002103183F
:103B800049411B1841F10001C90041EA5371DB00B2
:103B9000181863684FEA83024FEA937341F10001FA
:103BA000FCF716FB204DA5FB00325109642303FBF3
:103BB00011031B013233A5FB03235B0903F0F00261
:103BC00002EB011203F00F03216813448B6038BD30
:103BD0000023021843EB0301121841F10001C90050
:103BE00041EA5271D200101841F100016268921846
:103BF0005B41FCF7EDFA0C4DA5FB00325109642343
:103C000003FB1103DB003233A5FB03235B095A00DE
:103C100002F4F87202EB011203F007032168134467
:103C20008B60D4E7001001401F85EB5158B310B5ED
:103C3000044690F83D300BB3242384F83D302268CD
:103C4000D36823F40053D3602046FFF767FF226850
:103C5000136923F4904313612268536923F02A0304
:103C600053612268D36843F40053D360002020647A
:103C7000202384F83D3084F83E3010BD80F83C307D
:103C8000FDF7C6FAD8E701207047704708B501680C
:103C9000CA6822F04002CA60202280F83D20FFF767
:103CA000F4FF002008BD7047704708B5806B002303
:103CB000C385C384FFF7F8FF08BD704790F83E3016
:103CC000DBB2222B67D18368B3F5805F4DD0826A67
:103CD000B3F5805F04D0002B54D10369002B51D180
:103CE00003685B681370836A01338362C38D9BB280
:103CF000013B9BB2C385002B4FD100B583B0026856
:103D0000D36823F02003D3600268D36823F4807360
:103D1000D3600268536923F001035361202380F8C4
:103D20003E30036B012B33D100230363026802F1A1
:103D30000C0353E8003F23F010030C3242E800313B
:103D40000029F3D103681A6812F0100F06D0002280
:103D500001921A6801925B680193019B818DFFF7C4
:103D6000ACFF002003B05DF804FB0269002AAED16D
:103D7000826A03685B68C3F308031380836A0233B3
:103D80008362B3E703685B6803F07F031370AAE7FD
:103D9000FFF789FFE5E70220704700207047000029
:103DA00030B583B0044602681368D068516913F0D7
:103DB0000F0505D113F0200F02D010F0200F19D1FC
:103DC0002DB111F0010119D110F4907F16D1216BA2
:103DD00001297DD013F0800F03D010F0800F40F048
:103DE000158113F0400F03D010F0400F40F0128106
:103DF00003B030BD2046FFF761FFF9E713F0010F74
:103E000006D010F4807F03D0226C42F001022264BD
:103E100013F0040F04D019B1226C42F002022264A4
:103E200013F0020F04D019B1226C42F00402226494
:103E300013F0080F07D010F0200F00D119B1226C39
:103E400042F008022264226C002AD1D013F0200F25
:103E500002D010F0200F29D123685B6903F04003E2
:103E6000226C12F0080F00D163B32046FFF7F7FD74
:103E700023685B6913F0400F20D0226802F114031D
:103E800053E8003F23F04003143242E80031002998
:103E9000F3D1A36B73B1614A1A65A06BFDF74AFEBB
:103EA0000028A5D0A06B036D9847A1E72046FFF737
:103EB00005FFD1E72046FFF7F7FE99E72046FFF719
:103EC000F3FE95E72046FFF7EFFE002323648FE71C
:103ED00013F0100F3FF47EAF10F0100F3FF47AAFE5
:103EE000002301931368019353680193019B536965
:103EF00013F0400F50D0A26B13685B689BB2002B8D
:103F00003FF476AFA18D99427FF672AFE385D36916
:103F1000B3F5807F37D0226802F10C0353E8003FED
:103F200023F480730C3242E800310029F3D1226877
:103F300002F1140353E8003F23F00103143242E876
:103F400000310029F3D1226802F1140353E8003F45
:103F500023F04003143242E800310029F3D120233A
:103F600084F83E3000232363226802F10C0353E8F7
:103F7000003F23F010030C3242E800310029F3D156
:103F8000A06BFDF78DFDA18DE38D9BB2C91A89B29F
:103F90002046FFF792FE2BE7A18DE38D9BB2C91A55
:103FA00089B2E38D9BB2002B3FF422AF00293FF48E
:103FB0001FAF226802F10C0353E8003F23F4907313
:103FC0000C3242E800300028F3D1226802F11403D9
:103FD00053E8003F23F00103143242E80030002888
:103FE000F3D1202384F83E3000232363226802F1BA
:103FF0000C0353E8003F23F010030C3242E800307A
:104000000028F3D12046FFF758FEF1E62046FFF7DF
:1040100054FDEDE62046FFF739FEE9E6AB3C00082B
:1040200082B000230193019B013301930E4A934216
:1040300014D80369002BF6DA00230193036943F0D7
:1040400001030361019B01330193074A934208D89E
:10405000036913F0010FF5D1002000E0032002B046
:1040600070470320FBE700BF400D030084B010B58C
:10407000044603A880E80E00089B012B1FD1A36B08
:1040800023F48033A363E36823F4840323F0400321
:10409000E360E36823F44013E3600F9B012B09D036
:1040A0002046FFF7BDFF069B012B1BD0BDE810404B
:1040B00004B07047E36843F48013E360F0E7E3681B
:1040C00043F04003E3602046FFF7AAFF0C9B23B9AF
:1040D000A36B43F48033A363E5E7A36B23F480333E
:1040E000A363E0E7A36843F00603A360A36843F07B
:1040F0002003A360DAE70000022A0AD00921C2687F
:1041000022F47052C260C36843EA8123C360002076
:104110007047234B0B44234A93422FD9224B0B4425
:10412000224A93422CD9A1F57403A3F51053204AD7
:10413000934227D9A1F18373A3F5E7431D4A934224
:1041400022D31D4B0B441D4A93421FD91C4B0B44D9
:104150001C4A93421CD31C4B0B441C4A934219D358
:10416000A1F1B773A3F55853194A934214D3194BCD
:104170000B44194A934211D20721C0E70F21BEE731
:104180000E21BCE70D21BAE70C21B8E70B21B6E7F9
:104190000A21B4E70921B2E70821B0E70621AEE71A
:1041A000405327FFFF340C00401E1BFF3F420F000F
:1041B0007F4F120020D6130060B6E5FE5FE31600C5
:1041C00000D3CEFE40771B00C05BB3FEC091210040
:1041D00020753800E05459FEE09C4100836843F0AC
:1041E0000103836000207047836823F0010383602C
:1041F0000020704782B000230193890141F0200123
:104200000161019B01330193054A934205D803697B
:1042100013F0200FF5D1002000E0032002B070471A
:10422000400D030082B00023019310230361019B22
:1042300001330193054A934205D8036913F0100F27
:10424000F5D1002000E0032002B07047400D0300CC
:10425000D0F800381943C0F800180020704700005B
:1042600084B02DE9F041044607A880E80E00002341
:1042700006E003F1400204EB8202002151600133A9
:104280000E2BF6D9119F27BBD4F8043843F0020354
:10429000C4F80438A36B43F40013A363A36B23F4A3
:1042A0000023A363A36B23F48023A3630023C4F838
:1042B000003E04F50065D4F80038C4F800380C9BC3
:1042C000012B14D1099B6BB900212046FFF7C0FFD9
:1042D00011E0A36B23F40013A363A36B43F4002347
:1042E000A363E3E701212046FFF7B2FF03E00321C8
:1042F0002046FFF7ADFF10212046FFF77BFF8046E9
:1043000008B14FF001082046FFF78CFF08B14FF0CD
:10431000010800232B616B61EB610AE0C3B94FF028
:104320000060C2F8000900220A614FF67F328A60FD
:1043300001330799994210D904EB431202F5106139
:10434000D2F800090028E9DB0020C2F80009EAE7FA
:104350004FF09040C2F80009E5E700230AE0C3B13E
:104360004FF0904CC2F800CB002202614FF67F3232
:1043700082600133994211D904EB431202F5306097
:10438000D2F8006B002EEADB4FF0000CC2F800CB35
:10439000EAE74FF0006CC2F800CBE5E72B6923F4A5
:1043A00080732B610023A3616FF0804363610A9BDC
:1043B0001BB9A36943F01003A361A2690B4B13431C
:1043C000A3610D9B1BB1A36943F00803A361012FF7
:1043D00004D04046BDE8F04104B07047A36943F003
:1043E000804343F00403A361F3E700BF00383C803F
:1043F000D0F8083813F0060307D0022B07D0062B9D
:1044000001D00F2070470220704700207047022023
:10441000704710B591F800C04B78012B23D000F500
:10442000006ED0F81C380CF00F040122A24043EAC1
:104430000243C0F81C3800EB4C10D0F8003B13F4DA
:10444000004F0ED1D0F8003B8A68C2F30A02C97847
:1044500042EA8142134343F0805343F40043C0F8DF
:10446000003B002010BDD0F81C280CF00F0E03FA02
:104470000EF39BB21343C0F81C3800EB4C10D0F87D
:10448000003913F4004FECD1D0F800398A68C2F338
:104490000A02C97842EA814242EA8C5C43EA0C0390
:1044A00043F0805343F40043C0F80039D9E70000DB
:1044B00030B40B784A78012A26D000EB4313D3F8A6
:1044C000002B002A52DBD0F83C480A7802F00F0299
:1044D0004FF0010C0CFA02F224EA0242C0F83C2828
:1044E000D0F81C28097801F00F010CFA01FC22EA2F
:1044F0000C42C0F81C28D3F8001B234A0A40C3F81A
:10450000002B002030BC704700EB4313D3F8002988
:10451000002A1EDBD0F83C580A7802F00F02012472
:1045200004FA02F292B225EA0202C0F83C28D0F85E
:104530001C28097801F00F018C40A4B222EA04047F
:10454000C0F81C48D3F80019104A0A40C3F80029E3
:10455000D7E7D3F8002942F00062C3F80029D3F866
:10456000002942F08042C3F80029D3E7D3F8002B9A
:1045700042F00062C3F8002BD3F8002B42F08042D7
:10458000C3F8002B9FE700BF0078F3EF007833EC0F
:1045900070B40B784C78012C27D000EB431000F559
:1045A00030631C69E40CE4041C611C6924F0FF54B2
:1045B00024F4C0141C614C690CB18C684C611C69FA
:1045C00044F400241C611C698D68C5F3120C44EA94
:1045D0000C041C61012A66D0D0F8003B43F0044370
:1045E000C0F8003B002070BC70474C696CBB00EB0E
:1045F0004314D4F8105925F0FF5525F4C015C4F81C
:104600001059D4F8105945F40025C4F81059D4F8BD
:104610001059ED0CED04C4F81059012A34D000EB08
:104620004313D3F8002942F00442C3F800294B6930
:10463000002BD7D0D0F834380A7802F00F010122CD
:104640008A401343C0F83438CCE700EB431404F538
:1046500010642569ED0CED042561256925F0FF55F1
:1046600025F4C01525618D684E69AE4200D94D61B3
:10467000256945F40025256125694E69C6F3120CAC
:1046800045EA0C052561C8E70A691AB100EB431138
:10469000C1F8142900EB4310D0F8002942F004427D
:1046A000C0F800299EE7CA68002A95D05A6193E7AE
:1046B00010B59DF8084084B903334FEA930E4FF0CC
:1046C000000C08E000EB023303F5805351F8044B73
:1046D0001C600CF1010CF445F4D3002010BD000067
:1046E000F0B583B00B784C78012C33D000EB43133A
:1046F00003F5306CDCF81040E40CE404CCF8104016
:10470000DCF8104024F0FF5424F4C014CCF810401E
:104710004C69002C40F0CA80DCF810408D68C5F36D
:1047200012052C43CCF81040DCF8104044F400246F
:10473000CCF81040012A00F0D380CA78012A00F09A
:10474000D680D3F8002B42F00442C3F8002B00209F
:1047500003B0F0BD4C6984BB00EB4314D4F810598E
:1047600025F0FF5525F4C015C4F81059D4F8105998
:1047700045F40025C4F81059D4F81059ED0CED0497
:10478000C4F81059012A4FD000EB4313D3F8004965
:1047900044F00444C3F80049CC78012C6DD04B6937
:1047A000002BD4D0D0F834380A7802F00F0101225F
:1047B0008A401343C0F83438C9E700EB4314D4F8F7
:1047C0001059ED0CED04C4F81059D4F8105925F027
:1047D000FF5525F4C015C4F81059D4F810598E6847
:1047E0004F6907EB060C0CF1FF3CBCFBF6FC494E95
:1047F00006EACC4C45EA0C05C4F81059D4F8105917
:104800004E69C6F312063543C4F8105904F5106416
:10481000CD78012DB6D1256925F0C04525612569E2
:1048200045F000552561ADE70A691AB100EB431464
:10483000C4F81429CA78012A08D000EB4313D3F82E
:10484000002942F00442C3F8002980E7D0F8082884
:1048500012F4807F08D100EB4311D1F8002942F017
:104860000052C1F80029E8E700EB4311D1F8002914
:1048700042F08052C1F80029DFE7D0F8084814F46C
:10488000807F0CD1D3F8004944F00054C3F80049AC
:1048900000928B8A0A78C968FFF70AFF57E7D3F8B6
:1048A000004944F08054C3F80049F1E78D682C4476
:1048B000013CB4FBF5F4DCF810501FFA84FE154EF1
:1048C00006EAC4442543CCF81050DCF810508C683C
:1048D0000EFB04F4C4F312042C43CCF8104029E777
:1048E000CA68002A3FF429AFCCF8142025E7D0F895
:1048F000082812F4807F06D1D3F8002B42F0005232
:10490000C3F8002B1DE7D3F8002B42F08052C3F808
:10491000002B16E70000F81F00B583B08446084658
:104920004FEA920E02F00302002305E00CF58051DD
:10493000096840F8041B01337345F7D39AB10CF5AD
:10494000805CDCF8003001934FF0000C5FFA8CF3D0
:10495000D900019BCB4000F8013B0CF1010C013A5E
:1049600092B2002AF2D103B05DF804FB0B784A78CA
:10497000012A14D000EB4310D0F8002B002A06DBEC
:104980002BB1D0F8003B23F08043C0F8003BD0F8B7
:10499000003B43F40013C0F8003B0020704700EBDD
:1049A0004310D0F80029002A06DB2BB1D0F80039DB
:1049B00023F08043C0F80039D0F8003943F40013E5
:1049C000C0F80039E9E70B784A78012A0ED000EBED
:1049D0004310D0F8003B23F40013C0F8003BCB7821
:1049E000023BDBB2012B15D90020704700EB4310CE
:1049F000D0F8003923F40013C0F80039CB78023B1B
:104A0000DBB2012BF0D8D0F8003943F08053C0F866
:104A10000039E9E7D0F8003B43F08053C0F8003B91
:104A2000E2E7D0F8003823F4FE63C0F80038D0F88D
:104A30000038090101F4FE611943C0F80018002094
:104A40007047D0F8003E23F00303C0F8003ED0F8D2
:104A5000043823F00203C0F8043800207047D0F86F
:104A6000003E23F00303C0F8003ED0F8043843F0C2
:104A70000203C0F804380020704742698069104082
:104A80007047D0F8183800F50060C0691840000C75
:104A90007047D0F8183800F50060C069184080B23F
:104AA000704700EB4111D1F8082B00F50060406918
:104AB0001040704710B4D0F81048D0F8343801F0E6
:104AC0000F02D340DB01DBB2234300EB411000F5C2
:104AD0001060806818405DF8044B7047406900F032
:104AE0000100704738B50546C36823F0C043C36072
:104AF000012913D019BBC36843F08043C36000246D
:104B00000120FCF795FC01342846FFF7E7FF08B1C8
:104B1000312CF5D9322C14D0002038BDC36843F0B5
:104B20000053C36000240120FCF782FC01342846B6
:104B3000FFF7D4FF0128EDD0312CF4D9EAE70120AA
:104B4000EBE70120E9E7D0F8003923F4FF6323F015
:104B50000703C0F80039D0F8043843F48073C0F874
:104B6000043800207047000010B4046C154B9C42C0
:104B700003D9D0F8003B002B16DB0024C0F8104B03
:104B8000D0F8104B44F40024C0F8104BD0F8104B70
:104B900044F01804C0F8104BD0F8104B44F0C04457
:104BA000C0F8104B012903D000205DF8044B70477A
:104BB000C0F8142BD0F8003B43F08023C0F8003B32
:104BC000F2E700BF0A30544F10B5D0F8BC4284B1B0
:104BD000D0F8C0327BB194F80002FF280DD09B685A
:104BE00094F8012221469847FF2384F800320020E0
:104BF00010BD0320FCE70020FAE70020F8E70000E2
:104C0000432303800048704744000020432303806F
:104C10000048704788000020432303800048704705
:104C2000D80000200A23038000487047CC000020F1
:104C300038B5D0F8BC5275B1044602F0E4FBC5F8B3
:104C40000C02D4F8C032DB6805F50371D5F8040214
:104C50009847002038BD0320FCE710B5D0F8C442C7
:104C6000D0F8BC3253B301EB810200EB82029269AF
:104C70004AB1C1EBC10C04EB8C04646CB2FBF4FCD4
:104C800004FB1C2272B10022C3F81422D0F8C02207
:104C90001469ACB10A4603F50471D3F80802A047C1
:104CA000002010BD01EB810300EB830300249C6115
:104CB0002346224602F0F0FB2046F2E70320F0E70D
:104CC0000020EEE7F0B583B0D0F8BC6200238DF889
:104CD0000730ADF80430002E6CD007460C460B7838
:104CE00013F060052AD0202D5ED1CA88F2B113F0EE
:104CF000800F0FD0D0F8C0329B683146607898475B
:104D0000E288072A28BF07223146384600F014FE01
:104D100000254CE04B7886F800328B7986F801321A
:104D2000CA88314600F01DFE002540E0D0F8C032B0
:104D30009B68002248789847002538E04E780B2E73
:104D40002ED8DFE806F006342D2D2D2D2D2D2D2DFE
:104D5000152490F89C32DBB2032B03D000F0C2FA8A
:104D6000032524E0022201A900F0E6FD35461EE0FD
:104D700090F89C32DBB2032B03D000F0B3FA03258A
:104D800015E001220DF1070100F0D6FD0FE090F8CB
:104D90009C32DBB2032B0AD000F0A4FA032506E014
:104DA00000F0A0FA032502E000F09CFA0325284653
:104DB00003B0F0BD0325FAE738B50446812102F0BF
:104DC0004BFB002525870121204602F045FBA4F876
:104DD00078518221204602F03FFBA4F84C50A4F801
:104DE0004E50D4F8BC324BB1D4F8C0325B6898470F
:104DF000D4F8BC0202F012FBC4F8BC52002038BD4B
:104E000070B504464FF4077002F004FBB8B30646D1
:104E1000C4F8BC02237CBBBB4FF400730222812187
:104E2000204602F00EFB012525874FF40073022275
:104E30002946204602F005FBA4F878511023A4F877
:104E40004E30082303228221204602F0FAFA012381
:104E5000A4F84C30D4F8C0321B6898470023C6F839
:104E60001432C6F81832257C15BB4FF40073D6F8FF
:104E700004220121204602F017FB284670BD0023C2
:104E8000C4F8BC320225F8E74023022281212046E3
:104E900002F0D7FA01252587402302222946204621
:104EA00002F0CFFAA4F878511023A4F84E30C8E7E6
:104EB0004023D6F804220121204602F0F5FA00250D
:104EC000DBE719B1C0F8C01200207047032070471B
:104ED000D0F8BC322BB1C3F80812C3F8102200205E
:104EE000704703207047D0F8BC321BB1C3F80412DE
:104EF0000020704703207047D0F8BC22A2B108B54B
:104F0000D2F814320BB1012008BD0123C2F81432CB
:104F1000D2F81032C362D2F81032D2F808228121BE
:104F200002F0BAFA0020EFE70320704710B5D0F87E
:104F3000BC2292B1047C44B94FF40073D2F804222D
:104F4000012102F0B1FA204610BD4023D2F804221C
:104F5000012102F0A9FA0024F5E70324F3E798B150
:104F600008B503460020C3F8B802C3F8C002C3F86E
:104F7000CC0209B1C3F8B412012183F89C121A7053
:104F8000184602F0F5F908BD0320704710B582B04D
:104F90000023ADF8063061B10446C0F8B812CB6A00
:104FA0004BB10DF106009847C4F8CC02002002B0C6
:104FB00010BD0320FBE70020F9E708B502F039FA3D
:104FC00008BD08B5D0F8B83213B11B68984708BDC2
:104FD0000320FCE708B5D0F8B8320BB15B689847FE
:104FE000002008BD38B5044600F2AA25284600F086
:104FF00065F90123C4F89432B4F8B032C4F8983299
:1050000094F8AA1201F01F03012B0DD0022B10D02F
:105010002BB101F08001204602F026FA03E0294678
:10502000204600F00AFB38BD2946204600F03DFB33
:10503000F9E72946204600F06CFBF4E738B5044652
:105040000D4641BB1346D0F89422032A01D00846EE
:1050500038BDD0F85C11D0F86021914209D890F8A1
:105060009C32DBB2032B0FD0204600F091FC284687
:10507000EEE7891AC0F85C118A4228BF0A46194631
:1050800000F07EFC2846E3E7D0F8B8321B69002B1D
:10509000EAD09847E8E790F89C32DBB2032B01D0C6
:1050A0000020D5E7D0F8B8329B690BB19847CFE71D
:1050B0000020CDE738B504460D4600294AD11346F5
:1050C000D0F89422022A05D094F8A032012B3CD0CB
:1050D000284638BDC269016A8A420ED88A4218D071
:1050E00094F89C32DBB2032B27D08021204602F0BB
:1050F000BBF9204600F057FCE6E7521AC261194698
:1051000000F027FC00231A461946204602F0CCF98D
:10511000DAE783699942E3D8D0F898229342DFD244
:105120000022114600F015FC0021C4F898120B462D
:105130000A46204602F0B8F9C6E7D4F8B832DB6870
:10514000002BD2D020469847CFE7002384F8A03226
:105150002846BEE790F89C32DBB2032B01D000203A
:10516000B7E7D0F8B8325B690BB19847B1E70020D8
:10517000AFE7012380F89C320023C0F894324360EB
:10518000C0F8A432D0F8B832F3B170B50446D0F804
:10519000BC221AB15B680BB1002198474023002262
:1051A0001146204602F04DF90126A4F8646140251D
:1051B000C4F860512B4600228021204602F041F9BC
:1051C000A6842562002070BD032070470174002072
:1051D000704790F89C32DBB280F89D32042380F84F
:1051E0009C320020704790F89C32DBB2042B01D037
:1051F0000020704790F89D32DBB280F89C32F7E7D0
:10520000D0F8B82262B108B590F89C32DBB2032B1B
:1052100001D0002008BDD36923B198470020F9E7E9
:10522000032070470020F5E7D0F8B82262B108B536
:1052300090F89C32DBB2032B01D0002008BD136A2A
:1052400023B198470020F9E7032070470020F5E7D5
:10525000D0F8B82262B108B590F89C32DBB2032BCB
:1052600001D0002008BD536A23B198470020F9E718
:10527000032070470020F5E70020704708B50123A0
:1052800080F89C32D0F8B83213B15B680179984746
:10529000002008BD0346002002E00130C0B2013307
:1052A0001A78002AF9D1704708B54B88012B00D035
:1052B00008BDC0F8A43200F06BFBF9E70B7803706F
:1052C0004B7843708B78CA7843EA022343800B798A
:1052D0004A7943EA022383808B79CA7943EA02231D
:1052E000C380704710B50446802102F0BDF800214C
:1052F000204602F0B9F810BD30B583B004460D4623
:105300000023ADF806304A88130A013B062B00F251
:10531000AB80DFE803F0041F33A9A98D9A00D0F811
:10532000B4321B680DF10601007C9847EA88002A18
:1053300000F0A380BDF80630002B00F099809A425F
:1053400028BF1A46ADF806200146204600F0F4FAC0
:1053500003B030BD037C43B9D0F8B8329B6A0DF17D
:105360000600984702234370E0E7D0F8B832DB6AC2
:105370000DF10600984702234370D7E7D2B2052A01
:1053800052D8DFE802F003101D2A3744D0F8B432B7
:105390005B6823B10DF10601007C9847C6E72946FA
:1053A000FFF7A0FFD4E7D0F8B4329B6823B10DF12A
:1053B0000601007C9847B9E72946FFF793FFC7E746
:1053C000D0F8B432DB6823B10DF10601007C9847B8
:1053D000ACE72946FFF786FFBAE7D0F8B4321B697D
:1053E00023B10DF10601007C98479FE72946FFF79E
:1053F00079FFADE7D0F8B4325B6923B10DF1060156
:10540000007C984792E72946FFF76CFFA0E7D0F8A9
:10541000B4329B6923B10DF10601007C984785E702
:105420002946FFF75FFF93E72946FFF75BFF8FE70A
:10543000037C33B9D0F8B8325B6B0DF106009847A6
:1054400074E72946FFF74EFF82E7037C43B9D0F8A3
:10545000B8321B6B0DF1060098470723437065E7D0
:105460002946FFF73FFF73E72946FFF73BFF6FE74A
:1054700029462046FFF736FF6AE7204600F088FA03
:1054800066E738B504468B88FBB9CB88EBB94B8807
:105490007F2B1AD803F07F0590F89C32DBB2032BE8
:1054A0000CD080F89E52294601F0EEFF204600F015
:1054B0006FFA35B1022384F89C3209E0FFF712FF3E
:1054C00006E0012384F89C3202E02046FFF70AFF41
:1054D00038BD000070B504460E468D782E4B1D7009
:1054E000012D10D890F89C32DBB2022B0FD0032B89
:1054F00023D0FFF7F7FE284B19782046FFF76AFD07
:105500000325284670BDFFF7EDFE0325F9E78DB1B1
:1055100045602946FFF755FD054620B13146204636
:10552000FFF7E0FEEDE7204600F032FA032384F8AF
:105530009C32E6E700F02CFAE3E7CDB141688D42FA
:1055400025D0C9B2FFF746FD134B1978616020469C
:10555000FFF737FD0546B0B131462046FFF7C2FEE2
:1055600021792046FFF736FD022384F89C32C8E7F4
:10557000022380F89C3245602946FFF72BFD204628
:1055800000F006FABDE7204600F002FAB9E700F0A5
:10559000FFF90025B5E700BFA40A002008B5CB88B5
:1055A000012B0BD190F89C32DBB2022B09D9032BD3
:1055B00009D10122011D00F0BFF901E0FFF792FEC1
:1055C00008BD5BB213B9FFF78DFEF9E70146002372
:1055D00041F8083F012200F0AFF9F1E708B590F873
:1055E0009C32013B022B12D8CB88022B0CD1012319
:1055F000C360D0F8A4320BB10323C360022200F1D0
:105600000C0100F099F908BDFFF76CFEFBE7FFF70E
:1056100069FEF8E708B590F89C32013B022B09D8E7
:105620004B88012B00D008BD0023C0F8A43200F045
:10563000AFF9F8E7FFF756FEF5E738B50C7804F058
:105640006004202C06D0402C04D054B1FFF74AFE51
:10565000002404E0D0F8B8329B68984704462046FE
:1056600038BD4D78092D1DD8DFE805F012191C163C
:105670001C08051C0F0BFFF73FFEF0E7FFF701FFCB
:10568000EDE7FFF727FF0446E9E7FFF787FFE6E7C7
:10569000FFF7A4FF2C46E2E7FFF706FEDFE7FFF780
:1056A000B9FFDCE7FFF71EFED9E770B505460C46EB
:1056B0000B7803F06003202B07D0402B05D023B1DB
:1056C000FFF710FE0026304670BD95F89C32013B76
:1056D000022B18D82379012B0FD8D5F8B8329B6844
:1056E0002146284698470646E388002BEBD1002840
:1056F000E9D1284600F04CF9E5E721462846FFF7B6
:10570000F1FD0026DFE721462846FFF7EBFD0026E6
:10571000D9E7F8B506460D468B880C7804F060048E
:10572000202C08D0D9B2402C05D06CB12946FFF707
:10573000D9FD002406E0D6F8B8329B6829463046E9
:10574000984704462046F8BD6F78012F2FD0032FCD
:1057500005D0002F59D02946FFF7C4FDF2E790F895
:105760009C32DBB2022B05D0032B12D02946FFF767
:10577000B9FDE7E709B1802904D129463046FFF792
:10578000B1FDDFE701F070FE8021304601F06CFED4
:10579000D8E76B8823B919B1802901D0EB881BB1F8
:1057A000304600F0F5F8CDE701F05EFEF8E790F83E
:1057B0009C32DBB2022B05D0032B12D02946FFF717
:1057C00091FDBFE709B1802904D129463046FFF792
:1057D00089FDB7E701F048FE8021304601F044FE24
:1057E000B0E76B88002BADD111F07F0F0AD13046A6
:1057F00000F0CEF8D6F8B8329B6829463046984774
:1058000004469FE701F038FEF1E790F89C22D2B2FF
:10581000022A06D0032A29D02946FFF763FD3C4619
:1058200090E709B1802913D113F0800F15D101F051
:105830007F0101EB8101890001F5A8713144043138
:1058400000230B600222304600F076F83C4679E7F0
:105850002946FFF747FD3C4674E701F07F0101EB65
:1058600081018900103131440431E9E75BB2002B3A
:105870001FDB01F00F0202EB820200EB8202B2F8A2
:10588000642122B3002B27DB01F07F0303EB8303AA
:105890009C0004F5A8743444043409B1802924D14F
:1058A0000023236002222146304600F045F83C46A2
:1058B00048E701F00F0202EB820200EB8202928CB9
:1058C000002ADFD12946FFF70DFD3C463AE729467D
:1058D000FFF708FD3C4635E701F07F0303EB830348
:1058E0009C00103434440434D7E7304601F074FD92
:1058F00010B101232360D5E700232360D2E7D0B1A4
:1059000070B50D4616460446FFF7C4FC431C5B0009
:105910009BB233802B7003236B70022307E0EA54A1
:1059200001345A1CD2B20021A9540233DBB22278CE
:10593000002AF4D170BD704708B513460222C0F8A2
:1059400094228361C3610A46002101F0A5FD002075
:1059500008BD08B513460A46002101F09DFD002050
:1059600008BD08B513460322C0F89422C0F8583188
:10597000C0F85C310A46002101F096FD002008BD08
:1059800008B513460A46002101F08EFD002008BD2F
:1059900008B50422C0F8942200231A46194601F0E3
:1059A0007BFD002008BD08B50522C0F89422002325
:1059B0001A46194601F078FD002008BD842801D060
:1059C000033070470020704708B501F031F800201F
:1059D00008BD2DE9F04387B004460F464569BDB1C7
:1059E0008669AEB1D0F80480D0F80090B0F9080014
:1059F000FFF7E4FF0296019500903B462269494675
:105A0000404600F035FF0590059807B0BDE8F083EB
:105A100065682668D4F81080B4F90800FFF7CEFF57
:105A200005AB019300903B461FFA88F231462846A9
:105A300000F059FF0128E7D00020E6E708B500B9DB
:105A4000012001F03FF9002008BD00F10803436088
:105A50004FF0FF328260C360036100230360704730
:105A600000230361704743684B609A688A60516005
:105A700099600861036801330360704730B40D68B2
:105A8000B5F1FF3F11D000F108031C465B681A68AE
:105A9000AA42FAD963684B6099608C6061600861C2
:105AA00003680133036030BC70470469F2E703699F
:105AB000416882688A60416851605A68824206D0B3
:105AC000002202611A68013A1A60186870478268F9
:105AD0005A60F5E782B0002301930D4B1B68B3F1C8
